{
  "contractName": "MyContract",
  "abi": [
    {
      "anonymous": false,
      "inputs": [
        {
          "indexed": true,
          "internalType": "uint256",
          "name": "data",
          "type": "uint256"
        },
        {
          "indexed": false,
          "internalType": "uint256",
          "name": "date",
          "type": "uint256"
        },
        {
          "indexed": true,
          "internalType": "string",
          "name": "value",
          "type": "string"
        }
      ],
      "name": "MyEvent",
      "type": "event"
    },
    {
      "stateMutability": "payable",
      "type": "fallback",
      "payable": true
    },
    {
      "inputs": [],
      "name": "functionCalled",
      "outputs": [
        {
          "internalType": "string",
          "name": "",
          "type": "string"
        }
      ],
      "stateMutability": "view",
      "type": "function",
      "constant": true
    },
    {
      "stateMutability": "payable",
      "type": "receive",
      "payable": true
    },
    {
      "inputs": [],
      "name": "getData",
      "outputs": [
        {
          "internalType": "uint256",
          "name": "",
          "type": "uint256"
        }
      ],
      "stateMutability": "view",
      "type": "function",
      "constant": true
    },
    {
      "inputs": [
        {
          "internalType": "uint256",
          "name": "_data",
          "type": "uint256"
        },
        {
          "internalType": "string",
          "name": "value",
          "type": "string"
        }
      ],
      "name": "setData",
      "outputs": [],
      "stateMutability": "nonpayable",
      "type": "function"
    },
    {
      "inputs": [],
      "name": "sendEther",
      "outputs": [],
      "stateMutability": "payable",
      "type": "function",
      "payable": true
    }
  ],
  "bytecode": "0x608060405234801561001057600080fd5b5061062c806100206000396000f3fe6080604052600436106100435760003560e01c80630e29df22146100e457806318562dae146100ee5780633bc5de3014610117578063cc81afc81461014257610096565b36610096576040518060400160405280600781526020017f7265636569766500000000000000000000000000000000000000000000000000815250600190805190602001906100939291906102b0565b50005b6040518060400160405280600881526020017f66616c6c6261636b000000000000000000000000000000000000000000000000815250600190805190602001906100e19291906102b0565b50005b6100ec61016d565b005b3480156100fa57600080fd5b50610115600480360381019061011091906103f8565b6101bb565b005b34801561012357600080fd5b5061012c610219565b6040516101399190610467565b60405180910390f35b34801561014e57600080fd5b50610157610222565b604051610164919061051b565b60405180910390f35b6040518060400160405280600981526020017f73656e6445746865720000000000000000000000000000000000000000000000815250600190805190602001906101b89291906102b0565b50565b8260008190555081816040516101d292919061057c565b60405180910390206000547fb471d59b9e8fe78ab0670c11fe84df6ab431139b43533ab6764e0b15b8d6c39a4260405161020c9190610467565b60405180910390a3505050565b60008054905090565b6001805461022f906105c4565b80601f016020809104026020016040519081016040528092919081815260200182805461025b906105c4565b80156102a85780601f1061027d576101008083540402835291602001916102a8565b820191906000526020600020905b81548152906001019060200180831161028b57829003601f168201915b505050505081565b8280546102bc906105c4565b90600052602060002090601f0160209004810192826102de5760008555610325565b82601f106102f757805160ff1916838001178555610325565b82800160010185558215610325579182015b82811115610324578251825591602001919060010190610309565b5b5090506103329190610336565b5090565b5b8082111561034f576000816000905550600101610337565b5090565b600080fd5b600080fd5b6000819050919050565b6103708161035d565b811461037b57600080fd5b50565b60008135905061038d81610367565b92915050565b600080fd5b600080fd5b600080fd5b60008083601f8401126103b8576103b7610393565b5b8235905067ffffffffffffffff8111156103d5576103d4610398565b5b6020830191508360018202830111156103f1576103f061039d565b5b9250929050565b60008060006040848603121561041157610410610353565b5b600061041f8682870161037e565b935050602084013567ffffffffffffffff8111156104405761043f610358565b5b61044c868287016103a2565b92509250509250925092565b6104618161035d565b82525050565b600060208201905061047c6000830184610458565b92915050565b600081519050919050565b600082825260208201905092915050565b60005b838110156104bc5780820151818401526020810190506104a1565b838111156104cb576000848401525b50505050565b6000601f19601f8301169050919050565b60006104ed82610482565b6104f7818561048d565b935061050781856020860161049e565b610510816104d1565b840191505092915050565b6000602082019050818103600083015261053581846104e2565b905092915050565b600081905092915050565b82818337600083830152505050565b6000610563838561053d565b9350610570838584610548565b82840190509392505050565b6000610589828486610557565b91508190509392505050565b7f4e487b7100000000000000000000000000000000000000000000000000000000600052602260045260246000fd5b600060028204905060018216806105dc57607f821691505b602082108114156105f0576105ef610595565b5b5091905056fea2646970667358221220ae668a6cd4ee58a4db219feddf411b6fc4b491c08eca8d289f0a43cf1dae411f64736f6c634300080a0033",
  "immutableReferences": {},
  "source": "// SPDX-License-Identifier: UNLICENSED\r\npragma solidity >= 0.8.0;\r\n\r\ncontract MyContract {\r\n    uint data;\r\n    event MyEvent(uint indexed data, uint date, string indexed value);\r\n    function getData() external view returns(uint) {\r\n        return data;\r\n    }\r\n    function setData(uint _data, string calldata value) external {\r\n        data = _data;\r\n        emit MyEvent(data, block.timestamp, value);\r\n    }\r\n    function setDataPrivate(uint _data) private {\r\n        data = _data + 10;\r\n    }\r\n    string public functionCalled;\r\n    function sendEther() external payable {\r\n        functionCalled = \"sendEther\";\r\n    }\r\n    fallback() external payable {\r\n        functionCalled = \"fallback\";\r\n    }\r\n    receive() external payable {\r\n        functionCalled = \"receive\";\r\n    }\r\n}",
  "sourcePath": "D:\\Web3\\Web3 Basic\\contracts\\First.sol",
  "compiler": {
    "name": "solc",
    "version": "0.8.10+commit.fc410830.Emscripten.clang"
  },
  "schemaVersion": "3.4.5",
  "updatedAt": "2022-02-27T09:31:06.498Z",
  "networkType": "ethereum",
  "devdoc": {
    "kind": "dev",
    "methods": {},
    "version": 1
  },
  "userdoc": {
    "kind": "user",
    "methods": {},
    "version": 1
  }
}