{
  "contractName": "MyContract",
  "abi": [
    {
      "stateMutability": "payable",
      "type": "fallback",
      "payable": true
    },
    {
      "inputs": [],
      "name": "functionCalled",
      "outputs": [
        {
          "internalType": "string",
          "name": "",
          "type": "string"
        }
      ],
      "stateMutability": "view",
      "type": "function",
      "constant": true
    },
    {
      "stateMutability": "payable",
      "type": "receive",
      "payable": true
    },
    {
      "inputs": [],
      "name": "getData",
      "outputs": [
        {
          "internalType": "uint256",
          "name": "",
          "type": "uint256"
        }
      ],
      "stateMutability": "view",
      "type": "function",
      "constant": true
    },
    {
      "inputs": [
        {
          "internalType": "uint256",
          "name": "_data",
          "type": "uint256"
        }
      ],
      "name": "setData",
      "outputs": [],
      "stateMutability": "nonpayable",
      "type": "function"
    },
    {
      "inputs": [],
      "name": "sendEther",
      "outputs": [],
      "stateMutability": "payable",
      "type": "function",
      "payable": true
    }
  ],
  "bytecode": "0x608060405234801561001057600080fd5b506104e3806100206000396000f3fe6080604052600436106100435760003560e01c80630e29df22146100e45780633bc5de30146100ee5780635b4b73a914610119578063cc81afc81461014257610096565b36610096576040518060400160405280600781526020017f72656365697665000000000000000000000000000000000000000000000000008152506001908051906020019061009392919061025c565b50005b6040518060400160405280600881526020017f66616c6c6261636b000000000000000000000000000000000000000000000000815250600190805190602001906100e192919061025c565b50005b6100ec61016d565b005b3480156100fa57600080fd5b506101036101bb565b6040516101109190610318565b60405180910390f35b34801561012557600080fd5b50610140600480360381019061013b9190610364565b6101c4565b005b34801561014e57600080fd5b506101576101ce565b604051610164919061042a565b60405180910390f35b6040518060400160405280600981526020017f73656e6445746865720000000000000000000000000000000000000000000000815250600190805190602001906101b892919061025c565b50565b60008054905090565b8060008190555050565b600180546101db9061047b565b80601f01602080910402602001604051908101604052809291908181526020018280546102079061047b565b80156102545780601f1061022957610100808354040283529160200191610254565b820191906000526020600020905b81548152906001019060200180831161023757829003601f168201915b505050505081565b8280546102689061047b565b90600052602060002090601f01602090048101928261028a57600085556102d1565b82601f106102a357805160ff19168380011785556102d1565b828001600101855582156102d1579182015b828111156102d05782518255916020019190600101906102b5565b5b5090506102de91906102e2565b5090565b5b808211156102fb5760008160009055506001016102e3565b5090565b6000819050919050565b610312816102ff565b82525050565b600060208201905061032d6000830184610309565b92915050565b600080fd5b610341816102ff565b811461034c57600080fd5b50565b60008135905061035e81610338565b92915050565b60006020828403121561037a57610379610333565b5b60006103888482850161034f565b91505092915050565b600081519050919050565b600082825260208201905092915050565b60005b838110156103cb5780820151818401526020810190506103b0565b838111156103da576000848401525b50505050565b6000601f19601f8301169050919050565b60006103fc82610391565b610406818561039c565b93506104168185602086016103ad565b61041f816103e0565b840191505092915050565b6000602082019050818103600083015261044481846103f1565b905092915050565b7f4e487b7100000000000000000000000000000000000000000000000000000000600052602260045260246000fd5b6000600282049050600182168061049357607f821691505b602082108114156104a7576104a661044c565b5b5091905056fea2646970667358221220d6523349a68e7660bbad3a98db79240fba0fff6f984473ebb8fc4237b9d79c2764736f6c634300080a0033",
  "immutableReferences": {},
  "source": "// SPDX-License-Identifier: UNLICENSED\r\npragma solidity >= 0.8.0;\r\n\r\ncontract MyContract {\r\n    uint data;\r\n    function getData() external view returns(uint) {\r\n        return data;\r\n    }\r\n    function setData(uint _data) external {\r\n        data = _data;\r\n    }\r\n    function setDataPrivate(uint _data) private {\r\n        data = _data + 10;\r\n    }\r\n    string public functionCalled;\r\n    function sendEther() external payable {\r\n        functionCalled = \"sendEther\";\r\n    }\r\n    fallback() external payable {\r\n        functionCalled = \"fallback\";\r\n    }\r\n    receive() external payable {\r\n        functionCalled = \"receive\";\r\n    }\r\n}",
  "sourcePath": "C:\\Users\\Admin\\Desktop\\Web3\\Web3 Basic\\contracts\\First.sol",
  "compiler": {
    "name": "solc",
    "version": "0.8.10+commit.fc410830.Emscripten.clang"
  },
  "schemaVersion": "3.4.3",
  "updatedAt": "2022-02-23T07:46:28.886Z",
  "networkType": "ethereum",
  "devdoc": {
    "kind": "dev",
    "methods": {},
    "version": 1
  },
  "userdoc": {
    "kind": "user",
    "methods": {},
    "version": 1
  }
}